S0100000436C6F636B5F56312E7372656342
S11300000C942A000C9447000C9447000C9447006D
S11300100C9447000C9447000C9447000C94470040
S11300200C9447000C9494020C9447000C944700E1
S11300300C9447000C9447000C9447000C94470020
S11300400C9447000C9447000C9447000C94470010
S11300500C94470011241FBECFE5D8E0DEBFCDBF0E
S113006010E0A0E6B0E0E8ECF7E002C005900D92E5
S1130070AE36B107D9F720E0AEE6B0E001C01D927C
S1130080A23DB207E1F70E9468010C94E2030C94CC
S113009000000E94D90090938B0080938A000E94F4
S11300A046010895CF93DF9340E078C0C481D581A1
S11300B0842F90E0DF01A80FB91F288130E01D963E
S11300C00C9002C0359527950A94E2F720FF1AC0D8
S11300D0DC01AA0FBB1FA259BF4F2D913C912115E2
S11300E0310551F0DC01AA0FBB1FA259BF4F2150AB
S11300F031092D933C931EC021E0DC01A458BF4F6D
S11301002C9318C0DC01AA0FBB1FA259BF4F2D911D
S11301103C912536310550F4DC01AA0FBB1FA259CE
S1130120BF4F2F5F3F4F2D933C9304C0DC01A45875
S1130130BF4F1C92DC01A458BF4F2C91213029F4ED
S1130140DC01AD57BF4F1C920BC0DC01AD57BF4F54
S11301502C91211105C021E0DC01AD57BF4F2C9338
S1130160DC01AD57BF4F2C912130B9F426814217E1
S113017078F4A081B181E80FF91F21E030E0008418
S113018002C0220F331F0A94E2F73C9123272C93D9
S1130190FC01ED57FF4F22E020834F5FE0918A007E
S11301A0F0918B008781481708F480CFDF91CF91BD
S11301B00895ECE8F0E08BE390E09183808382E3A0
S11301C090E09383828380E390E095838483108618
S11301D041E0418732E0328723E0238794E094872B
S11301E085E08683158646873787208B918B828BA3
S11301F086E0838B87E0878320E010C03AB3E22F48
S1130200F0E0E457FF4F81E090E0008402C0880FE3
S1130210991F0A94E2F7832B8ABB2F5F8091920087
S1130220281760F320E011C031B3E22FF0E0E45767
S1130230FF4F81E090E0008402C0880F991F0A9468
S1130240E2F78095832381BB2F5F8091920028176A
S113025058F320E014C0A0918E00B0918F00E22FDB
S1130260F0E0E457FF4F81E090E0058402C0880F7E
S1130270991F0A94E2F79C91892B8C932F5F8091AC
S11302809300281740F38CE890E0089520E014C010
S1130290A0918C00B0918D00E22FF0E0E457FF4F65
S11302A081E090E0008402C0880F991F0A94E2F76D
S11302B09C91892B8C932F5F80919200281740F397
S11302C008950E94BD0281E00E94CD0278940895B1
S11302D00E9461010E9406020E94D60262EA70E056
S11302E00E949D03811108C048EE53E060E070E075
S11302F082EA90E00E94A9030E9449000E945200F1
S113030082EA90E00E94C2038031C9F4E0E6F0E0A2
S113031081818F5F81838C3350F08C538183808102
S11303208F5F8083883118F088518093600048EE95
S113033053E060E070E082EA90E00E94A9039091AB
S1130340A00080916000981306C09091A100809154
S11303506100981771F080916000909161000E9493
S11303604D0280916000909161009093A100809370
S1130370A0000E942502C2CFDB018A3020F4209124
S113038062002C9313C02DEC829F212D11242695FD
S113039026952695E22FF0E0EE59FF4F30813C93ED
S11303A0220F322F330F330F230F821BE82FF0E07D
S11303B0EE59FF4F208180916C00822B11968C9313
S11303C011979A3030F48091620012968C931297B0
S11303D015C08DEC989F812D112486958695869560
S11303E0E82FF0E0EE59FF4F208112962C931297DC
S11303F0880F282F220F220F820F981BE92FF0E07D
S1130400EE59FF4F808113968C93089580E006C0C7
S1130410E82FF0E0E654FF4F10828F5F8430C0F382
S11304200E9453020E94D6026EEB70E00E949D036C
S1130430811108C044E050E060E070E08EEB90E091
S11304400E94A9031092B20008958EEB90E00E94DE
S1130450C203803109F58091B200843010F010920B
S1130460B2000E947102E091B200F0E0E654FF4F46
S113047080810E947E028091B2000E94810244E049
S113048050E060E070E08EEB90E00E94A903809160
S1130490B2008F5F8093B20008956AEB70E00E940F
S11304A0BC0180E0089585B3E3EBF0E0808388B37A
S11304B081838FEF84BB84E0838385E0848386E03B
S11304C0858387E0868387B3806187BB87B3806237
S11304D087BB87B3806487BB87B3806887BBCF0142
S11304E0089588B3806188BB88B3806288BB88B371
S11304F0806488BB88B3806888BB0895809585BB79
S11305000895843080F428B3E82FF0E0ED54FF4FD1
S113051081E090E0038002C0880F991F0A94E2F7FB
S11305208095822388BB08951F920F920FB60F9275
S113053011248F939F93AF93BF938091CE0090919A
S1130540CF00A091D000B091D1000196A11DB11DA2
S11305508093CE009093CF00A093D000B093D100AD
S11305608FE791EC9DBD8CBDBF91AF919F918F9111
S11305700F900FBE0F901F9018958FE791EC9DBDC3
S11305808CBD1FBC81E08EBD1092CE001092CF00B6
S11305901092D0001092D1000895811104C089B73F
S11305A08B7F89BF089584E089BF08958EEC90E025
S11305B00895009731F0FC018081811104C082E12B
S11305C0089581E0089580E00895CF93DF93EC01CE
S11305D00E94D902811106C08981811102C08FE075
S11305E001C080E0DF91CF910895CF93DF93FB01A9
S11305F021E0208397878687EC0188819981AA81ED
S1130600BB8182879387A487B58780E0DF91CF91F0
S11306100895FC01A685B7858D919D910D90BC919F
S1130620A02D21E02083218382839383A483B58337
S1130630840F951FA61FB71F86839783A087B18752
S1130640428753876487758780E00895CF92DF924D
S1130650EF92FF920F931F93CF93DF93FC01A68534
S1130660B785CD90DD90ED90FC90028113812481BB
S1130670358186819781A085B185081719072A07D6
S11306803B0780F4C816D906EA06FB0630F5C01607
S1130690D106E206F30630F18C199D09AE09BF09B3
S11306A010E029C0C816D906EA06FB0628F0C016D1
S11306B0D106E206F306D8F0C816D906EA06FB0608
S11306C030F48C199D09AE09BF0910E014C08C19CF
S11306D09D09AE09BF0910E00EC010E180E090E072
S11306E0DC0109C010E180E090E0DC0104C010E10D
S11306F080E090E0DC014115510529F0EA0188838E
S11307009983AA83BB836115710569F0EB0122818A
S1130710338144815581C701B6010E94D3036883A4
S113072079838A839B83812FDF91CF911F910F91CE
S1130730FF90EF90DF90CF900895009731F061150E
S1130740710529F00E94F502089581E0089581E081
S11307500895CF92DF92EF92FF92CF93DF93EC0153
S11307606A017B010E94D902811105C0B701A6016B
S1130770CE010E940903DF91CF91FF90EF90DF90AB
S1130780CF900895CF93DF93EC010E94E50281118D
S113079007C040E050E060E070E0CE010E94260314
S11307A0DF91CF910895621773078407950728F0A6
S11307B0621B730B840B950B0895621B730B840BE4
S10B07C0950B0895F894FFCF96
S11107C8101A7E306D79335B5F707F7B800189
S9030000FC
