S0100000436C6F636B5F56312E7372656342
S11300000C942A000C9447000C9447000C9447006D
S11300100C9447000C9447000C9447000C94470040
S11300200C9447000C942B040C9447000C94470048
S11300300C9447000C9447000C9447000C94470020
S11300400C9449000C9447000C9447000C9447000E
S11300500C94470011241FBECFE5D8E0DEBFCDBF0E
S113006010E0A0E6B0E0E2E7FFE002C005900D92E8
S1130070A038B107D9F720E0A0E8B0E001C01D9294
S1130080A53EB207E1F70E94E7010C94B7070C9470
S113009000001F920F920FB60F9211248F939F931B
S11300A0AF93BF93EF93FF93A0918400B091850029
S11300B0EC91F0E084B195B1EE0FFF1FE058FF4FD3
S11300C0918380838C918F5F8C9311969C9111976F
S11300D0891301C01C9287B1807F87B997B1E091E1
S11300E08400F09185008081E80FF11D8281892BC5
S11300F087B9FF91EF91BF91AF919F918F910F902D
S11301000FBE0F901F9018950E949A00909385003F
S113011080938400089580E890E0089586B1806813
S113012086B9089586B1806486B9089586B18860D9
S113013086B90895E6E8F0E0108282E0818386E0E3
S1130140828387E0838320E011C03AB3E22FF0E09A
S1130150EA57FF4F81E090E0028002C0880F991FA8
S11301600A94E2F7809583238ABB2F5F80918700EE
S1130170281758F386B1876086B987B1806487B938
S113018097B1E0918600F0E0EA57FF4F8281892B16
S113019087B90E948E000E9496000E94920086E811
S11301A090E008959093CC008093CB00EFE9F0E0C9
S11301B0118281E0828382E0838383E0848384E00C
S11301C0858385E0868386E0878387E0808320E0DB
S11301D011C031B3E22FF0E0E156FF4F81E090E02F
S11301E0018002C0880F991F0A94E2F78095832347
S11301F081BB2F5F80919F00281758F320E010C027
S113020032B3E22FF0E0E156FF4F81E090E001804D
S113021002C0880F991F0A94E2F7832B82BB2F5FD9
S113022080919F00281760F308951F93CF93DF9365
S113023010E060C080B3C12FD0E0FE01E156FF4F53
S113024090E0018002C0959587950A94E2F780FFBB
S113025012C0FE01E657FF4F8081882331F0FE0172
S1130260E657FF4F8150808316C081E0FE01EF56B0
S1130270FF4F808310C0FE01E657FF4F8081853613
S113028030F4FE01E657FF4F8F5F808304C0FE0108
S1130290EF56FF4F1082FE01EF56FF4F80818130F1
S11302A029F4FE01E856FF4F10820BC0FE01E85608
S11302B0FF4F8081811105C081E0FE01E856FF4FA8
S11302C08083FE01E856FF4F8081813091F4E091F4
S11302D0CB00F091CC00CE01880F991FE80FF91FD5
S11302E00190F081E02D812F0995C856DF4F82E0FF
S11302F088831F5F80919F00181708F49BCFDF91BC
S1130300CF911F91089520E010C03BB3E22FF0E09D
S1130310E955FF4F81E090E0018002C0880F991FEA
S11303200A94E2F7832B8BBB2F5F8091A7002817D9
S113033060F30895E7EAF0E0118281E0828382E0CD
S1130340838383E0848384E0858385E0808320E065
S113035010C03AB3E22FF0E0E955FF4F81E090E09E
S1130360018002C0880F991F0A94E2F7832B8ABB8D
S11303702F5F8091A700281760F30E9483010895DE
S11303802BB3E82FF0E0E955FF4F81E090E00180C6
S113039002C0880F991F0A94E2F782278BBB089545
S11303A020E030E040E85FE360916E0070916F0000
S11303B080917000909171000E947A0560936E00A4
S11303C070936F00809370009093710008950E9461
S11303D06D04EC018091C200811128C081E08093FA
S11303E0C2000E94540481E00E9464040E949D03A0
S11303F080E690E00E94D2000E949A010E9484004C
S11304000E948B009093AE008093AD00789461EBD2
S113041070E0CE010E943405811108C048EE53E01B
S113042060E070E081EB90E00E94400581EB90E099
S11304300E9459058031C9F4E2E7F0E081818F5FC1
S113044081838C3350F08C53818380818F5F8083D0
S1130450883118F088518093720048EE53E060E0D0
S113046070E081EB90E00E9440059091AF00809194
S11304707200981306C09091B00080917300981791
S113048041F080917200909173009093B00080933A
S1130490AF0060916E0070916F0080917000909138
S11304A071000E94E4038091C10081110E94BC0389
S11304B00E941501BBCF4F925F926F927F928F92F1
S11304C09F92AF92BF92CF92DF92EF92FF920F93DF
S11304D01F93CF93DF934B015C018A0120E030E04E
S11304E0A9010E94E60588232CF5B7FAB094B7F861
S11304F0B09480917F00F801808320E030E04AE7E7
S113050054E4C501B4010E944507882384F10F2EE9
S1130510812CF0EC9F2EF9E7AF2EF4E4BF2EF02DE2
S1130520C1E00F2EC12CD12CF8ECEF2EF2E4FF2EFB
S1130530F02D30C020E030E44CE156E4C501B401B4
S11305400E9445078823ECF00F2E812CFCE39F2E9C
S1130550FCE1AF2EF6E4BF2EF02DC0E00F2EC12C2F
S1130560D12CFAE7EF2EF4E4FF2EF02D13C0C1E0F6
S11305700F2EC12CD12CF8ECEF2EF2E4FF2EF02D2F
S113058009C0C0E00F2EC12CD12CFAE7EF2EF4E401
S1130590FF2EF02D20E030E04AE754E4C501B40119
S11305A00E944A072B013C01C501B4010E945D066B
S11305B028EE33E0269FA001279F500D369F500D53
S11305C01124BA01550F880B990B0E9495069B01C3
S11305D0AC01C301B2010E9479052B013C01D0E0BA
S11305E042C0A5019401C701B6010E94E605181690
S11305F03CF1A7019601C501B4010E94EB050E94DC
S11306006406D801AC0FB11DE62FF0E0EC58FF4FA3
S113061080818C93CF5F70E080E090E00E9493062D
S11306209B01AC01C701B6010E944A079B01AC01C2
S1130630C501B4010E9479054B015C01D1E009C0F8
S1130640DD2339F0F801EC0FF11D809174008083F3
S1130650CF5F20E030E040E251E4C701B6010E94E0
S1130660EB056B017C0120E030E040E85FE3C7016B
S1130670B6010E94450788230CF0B3CFC43008F0BC
S11306804BC0C11105C0F801EC0FF11D1082CF5F02
S1130690EC2FF0E03197E00FF11F80917E00908104
S11306A0892B80830F2EC12CD12CF8ECEF2EF2E491
S11306B0FF2EF02D2FC0A7019601C301B2010E94A5
S11306C0EB050E946406D801AC0FB11DE62FF0E0E3
S11306D0EC58FF4F80818C93CF5F70E080E090E016
S11306E00E9493069B01AC01C701B6010E944A0710
S11306F09B01AC01C301B2010E9479052B013C01AD
S113070020E030E040E251E4C701B6010E94EB056D
S11307106B017C01C53078F2DF91CF911F910F916D
S1130720FF90EF90DF90CF90BF90AF909F908F900D
S11307307F906F905F904F90089580E006C0E82FFF
S1130740F0E0E353FF4F10828F5F8430C0F30E94C8
S1130750EA030E946D0461ED70E00E94340581118A
S113076008C044E050E060E070E081ED90E00E9459
S113077040051092C300089581ED90E00E94590550
S1130780803109F58091C300843010F01092C300C9
S11307900E940804E091C300F0E0E353FF4F80811E
S11307A00E9415048091C3000E94180444E050E0A4
S11307B060E070E081ED90E00E9440058091C3000C
S11307C08F5F8093C30008954DEC50E00E945B025C
S11307D080E0089585B3E4ECF0E0808388B38183FE
S11307E08FEF84BB84E0838385E0848386E0858304
S11307F087E0868387B3806187BB87B3806287BBCA
S113080087B3806487BB87B3806887BBCF010895B3
S113081088B3806188BB88B3806288BB88B38064F6
S113082088BB88B3806888BB0895809585BB08958C
S1130830843080F428B3E82FF0E0EC53FF4F81E0DC
S113084090E0038002C0880F991F0A94E2F7809514
S1130850822388BB08951F920F920FB60F92112422
S11308608F939F93AF93BF938091E1009091E200A7
S1130870A091E300B091E4000196A11DB11D809305
S1130880E1009093E200A093E300B093E4008FE7CB
S113089091EC9DBD8CBDBF91AF919F918F910F90B5
S11308A00FBE0F901F9018958FE791EC9DBD8CBDE6
S11308B01FBC81E08EBD1092E1001092E200109204
S11308C0E3001092E4000895811104C089B78B7F7E
S11308D089BF089584E089BF089581EE90E008956A
S11308E0009731F0FC018081811104C082E10895F8
S11308F081E0089580E00895CF93DF93EC010E9496
S11309007004811106C08981811102C08FE001C089
S113091080E0DF91CF910895CF93DF93FB0121E035
S1130920208397878687EC0188819981AA81BB817E
S113093082879387A487B58780E0DF91CF9108955C
S1130940FC01A685B7858D919D910D90BC91A02D3C
S113095021E02083218382839383A483B583840F3E
S1130960951FA61FB71F86839783A087B1874287E9
S113097053876487758780E00895CF92DF92EF9262
S1130980FF920F931F93CF93DF93FC01A685B78546
S1130990CD90DD90ED90FC9002811381248135810E
S11309A086819781A085B185081719072A073B0717
S11309B080F4C816D906EA06FB0630F5C016D1063F
S11309C0E206F30630F18C199D09AE09BF0910E067
S11309D029C0C816D906EA06FB0628F0C016D106B7
S11309E0E206F306D8F0C816D906EA06FB0630F488
S11309F08C199D09AE09BF0910E014C08C199D091A
S1130A00AE09BF0910E00EC010E180E090E0DC0107
S1130A1009C010E180E090E0DC0104C010E180E056
S1130A2090E0DC014115510529F0EA01888399839E
S1130A30AA83BB836115710569F0EB0122813381BF
S1130A4044815581C701B6010E946A056883798390
S1130A508A839B83812FDF91CF911F910F91FF9008
S1130A60EF90DF90CF900895009731F061157105F4
S1130A7029F00E948C04089581E0089581E008958E
S1130A80CF92DF92EF92FF92CF93DF93EC016A0152
S1130A907B010E947004811105C0B701A601CE013B
S1130AA00E94A004DF91CF91FF90EF90DF90CF9050
S1130AB00895CF93DF93EC010E947C04811107C059
S1130AC040E050E060E070E0CE010E94BD04DF91A0
S1130AD0CF910895621773078407950728F0621B66
S1130AE0730B840B950B0895621B730B840B950B8E
S1130AF008955058BB27AA270E9491050C940B0710
S1130B000E94FD0638F00E94040720F039F49F3F4C
S1130B1019F426F40C94FA060EF4E095E7FB0C9411
S1130B20F406E92F0E941C0758F3BA1762077307EB
S1130B308407950720F079F4A6F50C943E070EF48B
S1130B40E0950B2EBA2FA02D0B01B90190010C01D9
S1130B50CA01A0011124FF27591B99F0593F50F4F1
S1130B60503E68F11A16F040A22F232F342F442749
S1130B70585FF3CF469537952795A795F040539541
S1130B80C9F77EF41F16BA0B620B730B840BBAF011
S1130B909150A1F0FF0FBB1F661F771F881FC2F77C
S1130BA00EC0BA0F621F731F841F48F48795779590
S1130BB06795B795F7959E3F08F0B0CF9395880F4A
S1130BC008F09927EE0F9795879508950E94D0060F
S1130BD008F481E008950E94FF050C940B070E941D
S1130BE0040758F00E94FD0640F029F45F3F29F005
S1130BF00C94F40651110C943F070C94FA060E94CD
S1130C001C0768F39923B1F3552391F3951B550BF6
S1130C10BB27AA2762177307840738F09F5F5F4FCB
S1130C20220F331F441FAA1FA9F335D00E2E3AF00A
S1130C30E0E832D091505040E695001CCAF72BD022
S1130C40FE2F29D0660F771F881FBB1F2617370773
S1130C504807AB07B0E809F0BB0B802DBF01FF27A5
S1130C6093585F4F3AF09E3F510578F00C94F40688
S1130C700C943F075F3FE4F3983ED4F38695779551
S1130C806795B795F7959F5FC9F7880F911D96955E
S1130C90879597F90895E1E0660F771F881FBB1FBA
S1130CA0621773078407BA0720F0621B730B840B67
S1130CB0BA0BEE1F88F7E09508950E9464066894C5
S1130CC0B1110C943F0708950E94240788F09F57A0
S1130CD098F0B92F9927B751B0F0E1F0660F771F5C
S1130CE0881F991F1AF0BA95C9F714C0B13091F052
S1130CF00E943E07B1E008950C943E07672F782FB9
S1130D008827B85F39F0B93FCCF386957795679516
S1130D10B395D9F73EF490958095709561957F4F82
S1130D208F4F9F4F0895E89409C097FB3EF4909528
S1130D308095709561957F4F8F4F9F4F9923A9F0B0
S1130D40F92F96E9BB279395F6958795779567953F
S1130D50B795F111F8CFFAF4BB0F11F460FF1BC083
S1130D606F5F7F4F8F4F9F4F16C0882311F096E916
S1130D7011C0772321F09EE8872F762F05C06623C4
S1130D8071F096E8862F70E060E02AF09A95660F7D
S1130D90771F881FDAF7880F9695879597F9089536
S1130DA0990F0008550FAA0BE0E8FEEF1616170678
S1130DB0E807F907C0F012161306E407F50798F0E0
S1130DC0621B730B840B950B39F40A2661F0232BF9
S1130DD0242B252B21F408950A2609F4A140A69575
S1130DE08FEF811D811D089597F99F6780E870E05A
S1130DF060E008959FEF80EC089500240A9416168D
S1130E00170618060906089500240A9412161306F4
S1130E10140605060895092E0394000C11F4882382
S1130E2052F0BB0F40F4BF2B11F460FF04C06F5F9E
S1130E307F4F8F4F9F4F089557FD9058440F551F74
S1130E4059F05F3F71F04795880F97FB991F61F048
S1130E509F3F79F087950895121613061406551FBF
S1130E60F2CF4695F1DF08C0161617061806991F2B
S1130E70F1CF86957105610508940895E894BB2720
S1130E8066277727CB0197F908950E94D00608F4C6
S1130E908FEF08950E945D070C940B070E94FD06D6
S1130EA038F00E94040720F0952311F00C94F40606
S1130EB00C94FA0611240C943F070E941C0770F34B
S1130EC0959FC1F3950F50E0551F629FF001729FEB
S1130ED0BB27F00DB11D639FAA27F00DB11DAA1FFA
S1130EE0649F6627B00DA11D661F829F2227B00D47
S1130EF0A11D621F739FB00DA11D621F839FA00DD2
S1130F00611D221F749F3327A00D611D231F849F21
S1130F10600D211D822F762F6A2F11249F57504078
S1130F209AF0F1F088234AF0EE0FFF1FBB1F661FF3
S1130F30771F881F91505040A9F79E3F510580F0BC
S1130F400C94F4060C943F075F3FE4F3983ED4F30B
S1130F50869577956795B795F795E7959F5FC1F760
S1130F60FE2B880F911D9695879597F90895F8940F
S1050F70FFCFAD
S1130F72C001C001C001C001C001D001D00100E024
S1130F828A4411207E306D79335B5F707F7B8001F0
S9030000FC
