:100000000C942A000C9447000C9447000C94470071
:100010000C9447000C9447000C9447000C94470044
:100020000C9447000C940E030C9447000C9447006A
:100030000C9447000C9447000C9447000C94470024
:100040000C9449000C9447000C9447000C94470012
:100050000C94470011241FBECFE5D8E0DEBFCDBF12
:1000600010E0A0E6B0E0ECEBF8E002C005900D92E5
:10007000AC37B107D9F720E0ACE7B0E001C01D9282
:10008000AF3DB207E1F70E94D2010C945C040C94DE
:1000900000001F920F920FB60F9211248F939F931F
:1000A000AF93BF93EF93FF93A0918000B091810035
:1000B000EC91F0E084B195B1EE0FFF1FE458FF4FD3
:1000C000918380838C918F5F8C9311969C91119773
:1000D000891301C01C9287B1807F87B997B1E091E5
:1000E0008000F09181008081E80FF11D8281892BD1
:1000F00087B9FF91EF91BF91AF919F918F910F9031
:100100000FBE0F901F9018950E949A009093810047
:100110008093800008958CE790E0089586B1806810
:1001200086B9089586B1806486B9089586B18860DD
:1001300086B90895E2E8F0E0108282E0818386E0EB
:10014000828387E0838320E011C03AB3E22FF0E09E
:10015000EE57FF4F81E090E0028002C0880F991FA8
:100160000A94E2F7809583238ABB2F5F80918300F6
:10017000281758F386B1876086B987B1806487B93C
:1001800097B1E0918200F0E0EE57FF4F8281892B1A
:1001900087B90E948E000E9496000E94920082E819
:1001A00090E008959093C6008093C500EBE9F0E0DD
:1001B000118281E0828382E0838383E0848384E010
:1001C000858385E0868386E0878387E0808320E0DF
:1001D00011C031B3E22FF0E0E556FF4F81E090E02F
:1001E000018002C0880F991F0A94E2F7809583234B
:1001F00081BB2F5F80919B00281758F320E010C02F
:1002000032B3E22FF0E0E556FF4F81E090E001804D
:1002100002C0880F991F0A94E2F7832B82BB2F5FDD
:1002200080919B00281760F308951F93CF93DF936D
:1002300010E062C080B3C12FD0E0FE01E556FF4F51
:1002400090E0018002C0959587950A94E2F780FFBF
:1002500012C0FE01EA57FF4F8081882331F0FE0172
:10026000EA57FF4F8150808316C081E0FE01E357BB
:10027000FF4F808310C0FE01EA57FF4F8081853613
:1002800030F4FE01EA57FF4F8F5F808304C0FE0108
:10029000E357FF4F1082FE01E357FF4F808181300B
:1002A00029F4FE01EC56FF4F10820BC0FE01EC5604
:1002B000FF4F8081811105C081E0FE01EC56FF4FA8
:1002C0008083FE01EC56FF4F80818130A1F4153010
:1002D00070F4E091C500F091C600CE01880F991F1F
:1002E000E80FF91F0190F081E02D812F0995CC5680
:1002F000DF4F82E088831F5F80919B00181708F40E
:1003000099CFDF91CF911F91089520E010C03BB3AA
:10031000E22FF0E0ED55FF4F81E090E0018002C058
:10032000880F991F0A94E2F7832B8BBB2F5F809174
:10033000A300281760F30895E3EAF0E0118281E05A
:10034000828382E0838383E0848384E0858385E005
:10035000808320E010C03AB3E22FF0E0ED55FF4F6C
:1003600081E090E0018002C0880F991F0A94E2F7B3
:10037000832B8ABB2F5F8091A300281760F30E9414
:10038000850108952BB3E82FF0E0ED55FF4F81E094
:1003900090E0018002C0880F991F0A94E2F782273B
:1003A0008BBB08950E94370381E00E9447030E949F
:1003B000800280E690E00E94D2000E949C010E9490
:1003C00084000E948B009093AA008093A9007894E7
:1003D0000E9450036DEA70E00E941704811108C06A
:1003E00048EE53E060E070E08DEA90E00E94230464
:1003F0008DEA90E00E943C048031C9F4EEE6F0E022
:1004000081818F5F81838C3350F08C538183808115
:100410008F5F8083883118F0885180936E0048EE9A
:1004200053E060E070E08DEA90E00E942304909138
:10043000AB0080916E00981306C09091AC00809143
:100440006F00981771F080916E0090916F000E947C
:10045000C70280916E0090916F009093AC008093E2
:10046000AB000E949F020E941501C2CFDB018A30BF
:1004700020F4209170002C9313C02DEC829F212D2D
:100480001124269526952695E22FF0E0E059FF4F9E
:1004900030813C93220F322F330F330F230F821BF7
:1004A000E82FF0E0E059FF4F208180917A00822B05
:1004B00011968C9311979A3030F4809170001296B7
:1004C0008C93129715C08DEC989F812D11248695E1
:1004D00086958695E82FF0E0E059FF4F208112962F
:1004E0002C931297880F282F220F220F820F981B10
:1004F000E92FF0E0E059FF4F808113968C93089527
:1005000080E006C0E82FF0E0E953FF4F10828F5FD4
:100510008430C0F30E94CD020E9450036BEC70E067
:100520000E941704811108C044E050E060E070E0D0
:100530008BEC90E00E9423041092BD0008958BEC98
:1005400090E00E943C04803109F58091BD00843028
:1005500010F01092BD000E94EB02E091BD00F0E0AF
:10056000E953FF4F80810E94F8028091BD000E94F4
:10057000FB0244E050E060E070E08BEC90E00E9411
:1005800023048091BD008F5F8093BD00089567ECC8
:1005900070E00E94360280E0089585B3EEEBF0E053
:1005A000808388B381838FEF84BB84E0838385E07D
:1005B000848386E0858387E0868387B3806187BBF9
:1005C00087B3806287BB87B3806487BB87B380684B
:1005D00087BBCF01089588B3806188BB88B38062F0
:1005E00088BB88B3806488BB88B3806888BB089563
:1005F000809585BB0895843080F428B3E82FF0E01F
:10060000E254FF4F81E090E0038002C0880F991F01
:100610000A94E2F78095822388BB08951F920F9277
:100620000FB60F9211248F939F93AF93BF93809136
:10063000DB009091DC00A091DD00B091DE0001961E
:10064000A11DB11D8093DB009093DC00A093DD0021
:10065000B093DE008FE791EC9DBD8CBDBF91AF9153
:100660009F918F910F900FBE0F901F9018958FE75D
:1006700091EC9DBD8CBD1FBC81E08EBD1092DB0056
:100680001092DC001092DD001092DE0008958111BE
:1006900004C089B78B7F89BF089584E089BF08951E
:1006A0008BED90E00895009731F0FC01808181117D
:1006B00004C082E1089581E0089580E00895CF9319
:1006C000DF93EC010E945303811106C089818111DF
:1006D00002C08FE001C080E0DF91CF910895CF93F9
:1006E000DF93FB0121E0208397878687EC018881D7
:1006F0009981AA81BB8182879387A487B58780E08F
:10070000DF91CF910895FC01A685B7858D919D91CC
:100710000D90BC91A02D21E02083218382839383BF
:10072000A483B583840F951FA61FB71F8683978365
:10073000A087B187428753876487758780E00895D3
:10074000CF92DF92EF92FF920F931F93CF93DF939D
:10075000FC01A685B785CD90DD90ED90FC900281DF
:1007600013812481358186819781A085B185081701
:1007700019072A073B0780F4C816D906EA06FB06C4
:1007800030F5C016D106E206F30630F18C199D094A
:10079000AE09BF0910E029C0C816D906EA06FB0653
:1007A00028F0C016D106E206F306D8F0C816D9061E
:1007B000EA06FB0630F48C199D09AE09BF0910E06A
:1007C00014C08C199D09AE09BF0910E00EC010E1DC
:1007D00080E090E0DC0109C010E180E090E0DC0105
:1007E00004C010E180E090E0DC014115510529F0E2
:1007F000EA0188839983AA83BB836115710569F037
:10080000EB012281338144815581C701B6010E94E9
:100810004D04688379838A839B83812FDF91CF91F5
:100820001F910F91FF90EF90DF90CF900895009768
:1008300031F06115710529F00E946F03089581E080
:10084000089581E00895CF92DF92EF92FF92CF93C7
:10085000DF93EC016A017B010E945303811105C003
:10086000B701A601CE010E948303DF91CF91FF90D3
:10087000EF90DF90CF900895CF93DF93EC010E942B
:100880005F03811107C040E050E060E070E0CE01FE
:100890000E94A003DF91CF91089562177307840728
:1008A000950728F0621B730B840B950B0895621B50
:0C08B000730B840B950B0895F894FFCF98
:1008BC00C201C201C201C201C2010000000011202C
:0C08CC007E306D79335B5F707F7B8001B4
:00000001FF
