:100000000C942A000C9447000C9447000C94470071
:100010000C9447000C9447000C9447000C94470044
:100020000C9447000C946F040C9447000C94470008
:100030000C9447000C9447000C9447000C94470024
:100040000C9449000C9447000C9447000C94470012
:100050000C94470011241FBECFE5D8E0DEBFCDBF12
:1000600010E0A0E6B0E0EAEFFFE002C005900D92DC
:10007000AE36B107D9F720E0AEE6B0E001C01D9280
:10008000A13FB207E1F70E94F9010C94FB070C9421
:1000900000001F920F920FB60F9211248F939F931F
:1000A000AF93BF93EF93FF93A0917200B091730051
:1000B000EC91F0E084B195B1EE0FFF1FE259FF4FD4
:1000C000918380838C918F5F8C9311969C91119773
:1000D000891301C01C9287B1807F87B997B1E091E5
:1000E0007200F09173008081E80FF11D8281892BED
:1000F00087B9FF91EF91BF91AF919F918F910F9031
:100100000FBE0F901F9018950E949A009093730055
:100110008093720008958EE690E0089586B180681D
:1001200086B9089586B1806486B9089586B18860DD
:1001300086B90895E4E7F0E0108282E0818386E0EA
:10014000828387E0838320E011C03AB3E22FF0E09E
:10015000EC58FF4F81E090E0028002C0880F991FA9
:100160000A94E2F7809583238ABB2F5F8091750004
:10017000281758F386B1876086B987B1806487B93C
:1001800097B1E0917400F0E0EC58FF4F8281892B29
:1001900087B90E948E000E9496000E94920084E718
:1001A00090E0089590937900809378000E94710107
:1001B00090939700809396000E94DE010895CF935C
:1001C000DF9340E083C0C481D581842F90E0DF01BC
:1001D000A80FB91F288130E01D960C9002C03595FC
:1001E00027950A94E2F720FF1AC0DC01AA0FBB1F73
:1001F000A658BF4F2D913C912115310551F0DC01DE
:10020000AA0FBB1FA658BF4F215031092D933C9315
:100210001EC021E0DC01A857BF4F2C9318C0DC01A1
:10022000AA0FBB1FA658BF4F2D913C912536310513
:1002300050F4DC01AA0FBB1FA658BF4F2F5F3F4FE2
:100240002D933C9304C0DC01A857BF4F1C92DC01E6
:10025000A857BF4F2C91213029F4DC01A157BF4F83
:100260001C920BC0DC01A157BF4F2C91211105C07E
:1002700021E0DC01A157BF4F2C93DC01A157BF4FF8
:100280002C91213011F52681421778F4A081B1819B
:10029000E80FF91F21E030E0008402C0220F331F75
:1002A0000A94E2F73C9123272C93463049F4E091DD
:1002B0007800F0917900308121E0311120E0208335
:1002C000FC01E157FF4F22E020834F5FE091960051
:1002D000F09197008781481708F475CFDF91CF918F
:1002E0000895E8E9F0E08BE390E09183808382E376
:1002F00090E09383828380E390E0958384831086EB
:1003000041E0418732E0328723E0238794E09487FD
:1003100085E08683158646873787208B918B828B75
:1003200086E0838B87E0878320E010C03AB3E22F1A
:10033000F0E0E856FF4F81E090E0008402C0880FB3
:10034000991F0A94E2F7832B8ABB2F5F80919E004E
:10035000281760F320E011C031B3E22FF0E0E85637
:10036000FF4F81E090E0008402C0880F991F0A943B
:10037000E2F78095832381BB2F5F80919E00281731
:1003800058F320E014C0A0919A00B0919B00E22F96
:10039000F0E0E856FF4F81E090E0058402C0880F4E
:1003A000991F0A94E2F79C91892B8C932F5F80917F
:1003B0009F00281740F388E990E0089520E014C0DA
:1003C000A0919800B0919900E22FF0E0E856FF4F1D
:1003D00081E090E0008402C0880F991F0A94E2F740
:1003E0009C91892B8C932F5F80919E00281740F35E
:1003F00008950E94980481E00E94A8040E94E103ED
:100400008EEA90E00E94D2000E9484000E948B003D
:100410009093AD008093AC0078940E94B104EC01FD
:1004200061EC70E00E947805811108C048EE53E04D
:1004300060E070E081EC90E00E94840561EB70E088
:10044000CE010E947805811108C048E050E060E0CC
:1004500070E081EC90E00E9484050E94DF0081EC56
:1004600090E00E949D058031C9F4E0E6F0E08181D2
:100470008F5F81838C3350F08C53818380818F5FB9
:100480008083883118F088518093600048EE53E0F3
:1004900060E070E081EC90E00E94840581EB90E0E8
:1004A0000E949D058031F1F40E9492002091AC00E1
:1004B0003091AD008091AE00E82FF0E0EE0FFF1F0D
:1004C000E20FF31F6081718180E090E00E94D70607
:1004D0000E94280448E050E060E070E081EB90E08A
:1004E0000E9484059091AF0080916000981306C02F
:1004F0009091B000809161009817F1F00E949200F5
:100500002091AC003091AD008091AE00E82FF0E07A
:10051000EE0FFF1FE20FF31F6081718180E090E01A
:100520000E94D7060E94280480916000909161008B
:100530009093B0008093AF000E9400048ECF4F9242
:100540005F926F927F928F929F92AF92BF92CF9263
:10055000DF92EF92FF920F931F93CF93DF934B01A4
:100560005C018A0120E030E0A9010E942A0688236C
:100570002CF5B7FAB094B7F8B09480916D00F801FB
:10058000808320E030E04AE754E4C501B4010E94D2
:100590008907882384F10F2E812CF0EC9F2EF9E738
:1005A000AF2EF4E4BF2EF02DC1E00F2EC12CD12CC4
:1005B000F8ECEF2EF2E4FF2EF02D30C020E030E416
:1005C0004CE156E4C501B4010E9489078823ECF090
:1005D0000F2E812CFCE39F2EFCE1AF2EF6E4BF2E04
:1005E000F02DC0E00F2EC12CD12CFAE7EF2EF4E451
:1005F000FF2EF02D13C0C1E00F2EC12CD12CF8EC32
:10060000EF2EF2E4FF2EF02D09C0C0E00F2EC12C1A
:10061000D12CFAE7EF2EF4E4FF2EF02D20E030E0AD
:100620004AE754E4C501B4010E948E072B013C0146
:10063000C501B4010E94A10628EE33E0269FA00167
:10064000279F500D369F500D1124BA01550F880B6E
:10065000990B0E94D9069B01AC01C301B2010E9413
:10066000BD052B013C01D0E042C0A5019401C701AA
:10067000B6010E942A0618163CF1A7019601C50191
:10068000B4010E942F060E94A806D801AC0FB11D2C
:10069000E62FF0E0EE59FF4F80818C93CF5F70E042
:1006A00080E090E00E94D7069B01AC01C701B60133
:1006B0000E948E079B01AC01C501B4010E94BD05DB
:1006C0004B015C01D1E009C0DD2339F0F801EC0FEA
:1006D000F11D809162008083CF5F20E030E040E236
:1006E00051E4C701B6010E942F066B017C0120E096
:1006F00030E040E85FE3C701B6010E948907882324
:100700000CF0B3CFC43008F04BC0C11105C0F801E4
:10071000EC0FF11D1082CF5FEC2FF0E03197E00F6E
:10072000F11F80916C009081892B80830F2EC12C4A
:10073000D12CF8ECEF2EF2E4FF2EF02D2FC0A70104
:100740009601C301B2010E942F060E94A806D8019B
:10075000AC0FB11DE62FF0E0EE59FF4F80818C9376
:10076000CF5F70E080E090E00E94D7069B01AC0173
:10077000C701B6010E948E079B01AC01C301B20103
:100780000E94BD052B013C0120E030E040E251E435
:10079000C701B6010E942F066B017C01C53078F2BB
:1007A000DF91CF911F910F91FF90EF90DF90CF904D
:1007B000BF90AF909F908F907F906F905F904F9081
:1007C000089580E006C0E82FF0E0E752FF4F108266
:1007D0008F5F8430C0F30E942E040E94B1046DED3F
:1007E00070E00E947805811108C044E050E060E0AC
:1007F00070E08DED90E00E9484051092D100089584
:100800008DED90E00E949D05803109F58091D10029
:10081000843010F01092D1000E944C04E091D1007D
:10082000F0E0E752FF4F80810E9459048091D1008F
:100830000E945C0444E050E060E070E08DED90E0E8
:100840000E9484058091D1008F5F8093D10008952C
:1008500049ED50E00E949F0280E0089585B3E2EDEB
:10086000F0E0808388B381838FEF84BB84E083834F
:1008700085E0848386E0858387E0868387B3806113
:1008800087BB87B3806287BB87B3806487BB87B32E
:10089000806887BBCF01089588B3806188BB88B327
:1008A000806288BB88B3806488BB88B3806888BB5B
:1008B0000895809585BB0895843080F428B3E82F8F
:1008C000F0E0EE52FF4F81E090E0038002C0880F1D
:1008D000991F0A94E2F78095822388BB08951F929E
:1008E0000F920FB60F9211248F939F93AF93BF93E4
:1008F0008091ED009091EE00A091EF00B091F0009A
:100900000196A11DB11D8093ED009093EE00A09380
:10091000EF00B093F0008FE791EC9DBD8CBDBF91CF
:10092000AF919F918F910F900FBE0F901F901895D0
:100930008FE791EC9DBD8CBD1FBC81E08EBD1092F8
:10094000ED001092EE001092EF001092F00008956A
:10095000811104C089B78B7F89BF089584E089BF66
:1009600008958DEE90E00895009731F0FC018081AC
:10097000811104C082E1089581E0089580E0089526
:10098000CF93DF93EC010E94B404811106C08981EA
:10099000811102C08FE001C080E0DF91CF91089506
:1009A000CF93DF93FB0121E0208397878687EC01BB
:1009B00088819981AA81BB8182879387A487B58723
:1009C00080E0DF91CF910895FC01A685B7858D91D8
:1009D0009D910D90BC91A02D21E0208321838283E5
:1009E0009383A483B583840F951FA61FB71F8683A7
:1009F0009783A087B187428753876487758780E094
:100A00000895CF92DF92EF92FF920F931F93CF93AF
:100A1000DF93FC01A685B785CD90DD90ED90FC902D
:100A2000028113812481358186819781A085B185DA
:100A3000081719072A073B0780F4C816D906EA06E3
:100A4000FB0630F5C016D106E206F30630F18C192C
:100A50009D09AE09BF0910E029C0C816D906EA06EB
:100A6000FB0628F0C016D106E206F306D8F0C81639
:100A7000D906EA06FB0630F48C199D09AE09BF09B8
:100A800010E014C08C199D09AE09BF0910E00EC01A
:100A900010E180E090E0DC0109C010E180E090E02E
:100AA000DC0104C010E180E090E0DC01411551055B
:100AB00029F0EA0188839983AA83BB8361157105B4
:100AC00069F0EB012281338144815581C701B60170
:100AD0000E94AE05688379838A839B83812FDF918F
:100AE000CF911F910F91FF90EF90DF90CF900895DD
:100AF000009731F06115710529F00E94D004089526
:100B000081E0089581E00895CF92DF92EF92FF9205
:100B1000CF93DF93EC016A017B010E94B404811141
:100B200005C0B701A601CE010E94E404DF91CF9178
:100B3000FF90EF90DF90CF900895CF93DF93EC017B
:100B40000E94C004811107C040E050E060E070E006
:100B5000CE010E940105DF91CF91089562177307BE
:100B60008407950728F0621B730B840B950B08957F
:100B7000621B730B840B950B08955058BB27AA2753
:100B80000E94D5050C944F070E94410738F00E943F
:100B9000480720F039F49F3F19F426F40C943E07DF
:100BA0000EF4E095E7FB0C943807E92F0E946007EC
:100BB00058F3BA17620773078407950720F079F492
:100BC000A6F50C9482070EF4E0950B2EBA2FA02DFB
:100BD0000B01B90190010C01CA01A0011124FF27EA
:100BE000591B99F0593F50F4503E68F11A16F040E5
:100BF000A22F232F342F4427585FF3CF46953795E4
:100C00002795A795F0405395C9F77EF41F16BA0BA8
:100C1000620B730B840BBAF09150A1F0FF0FBB1F56
:100C2000661F771F881FC2F70EC0BA0F621F731F9F
:100C3000841F48F4879577956795B795F7959E3FFC
:100C400008F0B0CF9395880F08F09927EE0F97958D
:100C5000879508950E94140708F481E008950E9482
:100C600043060C944F070E94480758F00E94410722
:100C700040F029F45F3F29F00C94380751110C948F
:100C800083070C943E070E94600768F39923B1F331
:100C9000552391F3951B550BBB27AA2762177307A2
:100CA000840738F09F5F5F4F220F331F441FAA1F36
:100CB000A9F335D00E2E3AF0E0E832D091505040F2
:100CC000E695001CCAF72BD0FE2F29D0660F771FA0
:100CD000881FBB1F261737074807AB07B0E809F086
:100CE000BB0B802DBF01FF2793585F4F3AF09E3F0B
:100CF000510578F00C9438070C9483075F3FE4F3B8
:100D0000983ED4F3869577956795B795F7959F5F4D
:100D1000C9F7880F911D9695879597F90895E1E099
:100D2000660F771F881FBB1F621773078407BA07F8
:100D300020F0621B730B840BBA0BEE1F88F7E09553
:100D400008950E94A8066894B1110C948307089531
:100D50000E94680788F09F5798F0B92F9927B751DC
:100D6000B0F0E1F0660F771F881F991F1AF0BA954F
:100D7000C9F714C0B13091F00E948207B1E0089524
:100D80000C948207672F782F8827B85F39F0B93F16
:100D9000CCF3869577956795B395D9F73EF4909502
:100DA0008095709561957F4F8F4F9F4F0895E89480
:100DB00009C097FB3EF490958095709561957F4FA3
:100DC0008F4F9F4F9923A9F0F92F96E9BB27939551
:100DD000F695879577956795B795F111F8CFFAF461
:100DE000BB0F11F460FF1BC06F5F7F4F8F4F9F4F92
:100DF00016C0882311F096E911C0772321F09EE8F0
:100E0000872F762F05C0662371F096E8862F70E055
:100E100060E02AF09A95660F771F881FDAF7880F2F
:100E20009695879597F90895990F0008550FAA0B85
:100E3000E0E8FEEF16161706E807F907C0F01216ED
:100E40001306E407F50798F0621B730B840B950BF0
:100E500039F40A2661F0232B242B252B21F4089545
:100E60000A2609F4A140A6958FEF811D811D0895E2
:100E700097F99F6780E870E060E008959FEF80EC4D
:100E8000089500240A9416161706180609060895F0
:100E900000240A9412161306140605060895092E56
:100EA0000394000C11F4882352F0BB0F40F4BF2BC5
:100EB00011F460FF04C06F5F7F4F8F4F9F4F089505
:100EC00057FD9058440F551F59F05F3F71F04795FB
:100ED000880F97FB991F61F09F3F79F087950895E0
:100EE000121613061406551FF2CF4695F1DF08C0FF
:100EF000161617061806991FF1CF8695710561051C
:100F000008940895E894BB2766277727CB0197F9C3
:100F100008950E94140708F48FEF08950E94A10716
:100F20000C944F070E94410738F00E94480720F0B8
:100F3000952311F00C9438070C943E0711240C945F
:100F400083070E94600770F3959FC1F3950F50E0EF
:100F5000551F629FF001729FBB27F00DB11D639F6B
:100F6000AA27F00DB11DAA1F649F6627B00DA11D11
:100F7000661F829F2227B00DA11D621F739FB00DB7
:100F8000A11D621F839FA00D611D221F749F332727
:100F9000A00D611D231F849F600D211D822F762FC0
:100FA0006A2F11249F5750409AF0F1F088234AF09D
:100FB000EE0FFF1FBB1F661F771F881F9150504009
:100FC000A9F79E3F510580F00C9438070C948307D5
:100FD0005F3FE4F3983ED4F3869577956795B79590
:100FE000F795E7959F5FC1F7FE2B880F911D9695AA
:0A0FF000879597F90895F894FFCF54
:0E0FFA00101A7E306D79335B5F707F7B800153
:00000001FF
