:100000000C942A000C9447000C9447000C94470071
:100010000C9447000C9447000C9447000C94470044
:100020000C9447000C94D5030C9447000C944700A3
:100030000C9447000C9447000C9447000C94470024
:100040000C9461010C9447000C9447000C944700F9
:100050000C94470011241FBECFE5D8E0DEBFCDBF12
:1000600010E0A0E6B0E0E6ECFEE002C005900D92E4
:10007000A237B107D9F720E0A2E7B0E001C01D9296
:10008000A63DB207E1F70E94A4010C9461070C940D
:1000900000000E94D90090938F0080938E000E94F0
:1000A00046010895CF93DF9340E078C0C481D581A5
:1000B000842F90E0DF01A80FB91F288130E01D9642
:1000C0000C9002C0359527950A94E2F720FF1AC0DC
:1000D000DC01AA0FBB1FAE58BF4F2D913C912115DB
:1000E000310551F0DC01AA0FBB1FAE58BF4F2150A4
:1000F00031092D933C931EC021E0DC01A058BF4F75
:100100002C9318C0DC01AA0FBB1FAE58BF4F2D9116
:100110003C912536310550F4DC01AA0FBB1FAE58C7
:10012000BF4F2F5F3F4F2D933C9304C0DC01A0587D
:10013000BF4F1C92DC01A058BF4F2C91213029F4F5
:10014000DC01A957BF4F1C920BC0DC01A957BF4F60
:100150002C91211105C021E0DC01A957BF4F2C9340
:10016000DC01A957BF4F2C912130B9F426814217E9
:1001700078F4A081B181E80FF91F21E030E000841C
:1001800002C0220F331F0A94E2F73C9123272C93DD
:10019000FC01E957FF4F22E020834F5FE0918E0082
:1001A000F0918F008781481708F480CFDF91CF91BD
:1001B0000895E0E9F0E08BE390E09183808382E3AF
:1001C00090E09383828380E390E09583848310861C
:1001D00041E0418732E0328723E0238794E094872F
:1001E00085E08683158646873787208B918B828BA7
:1001F00086E0838B87E0878320E010C03AB3E22F4C
:10020000F0E0E057FF4F81E090E0008402C0880FEB
:10021000991F0A94E2F7832B8ABB2F5F8091960087
:10022000281760F320E011C031B3E22FF0E0E0576F
:10023000FF4F81E090E0008402C0880F991F0A946C
:10024000E2F78095832381BB2F5F8091960028176A
:1002500058F320E014C0A0919200B0919300E22FD7
:10026000F0E0E057FF4F81E090E0058402C0880F86
:10027000991F0A94E2F79C91892B8C932F5F8091B0
:100280009700281740F380E990E0089520E014C01B
:10029000A0919000B0919100E22FF0E0E057FF4F65
:1002A00081E090E0008402C0880F991F0A94E2F771
:1002B0009C91892B8C932F5F80919600281740F397
:1002C00008951F920F920FB60F9211242F933F9310
:1002D0004F935F936F937F938F939F93AF93BF934E
:1002E000EF93FF9364B175B180E090E00E943D060A
:1002F000609360007093610080936200909363004C
:10030000FF91EF91BF91AF919F918F917F916F91ED
:100310005F914F913F912F910F900FBE0F901F90C3
:10032000189586B1876086B987B1806487B987B12F
:10033000876087B986B1806886B986B1886086B9DA
:1003400086B1806486B908950E94FE0381E00E9410
:100350000E040E9447030E9449000E949101789474
:100360000E94170466EA70E00E94DE04811108C052
:1003700048EE53E060E070E086EA90E00E94EA0414
:100380000E94520086EA90E00E9403058031E1F469
:1003900086B1806486B9E4E6F0E081818F5F818375
:1003A0008C3350F08C53818380818F5F80838831C0
:1003B00018F088518093640048EE53E060E070E0EC
:1003C00086EA90E00E94EA049091A4008091640083
:1003D000981306C09091A50080916500981791F040
:1003E0006091600070916100809162009091630063
:1003F0000E948E0380916400909165009093A50007
:100400008093A4000E946603BBCF4F925F926F92CD
:100410007F928F929F92AF92BF92CF92DF92EF9294
:10042000FF920F931F93CF93DF934B015C018A01DF
:1004300020E030E0A9010E94900588232CF5B7FA4E
:10044000B094B7F8B09480917100F801808320E0F7
:1004500030E04AE754E4C501B4010E94EF06882366
:1004600084F10F2E812CF0EC9F2EF9E7AF2EF4E4EF
:10047000BF2EF02DC1E00F2EC12CD12CF8ECEF2EA9
:10048000F2E4FF2EF02D30C020E030E44CE156E4E1
:10049000C501B4010E94EF068823ECF00F2E812CD9
:1004A000FCE39F2EFCE1AF2EF6E4BF2EF02DC0E062
:1004B0000F2EC12CD12CFAE7EF2EF4E4FF2EF02DF5
:1004C00013C0C1E00F2EC12CD12CF8ECEF2EF2E4BA
:1004D000FF2EF02D09C0C0E00F2EC12CD12CFAE761
:1004E000EF2EF4E4FF2EF02D20E030E04AE754E454
:1004F000C501B4010E94F4062B013C01C501B40101
:100500000E94070628EE33E0269FA001279F500D8A
:10051000369F500D1124BA01550F880B990B0E947C
:100520003F069B01AC01C301B2010E9423052B01D0
:100530003C01D0E042C0A5019401C701B6010E9470
:10054000900518163CF1A7019601C501B4010E945F
:1005500095050E940E06D801AC0FB11DE62FF0E004
:10056000EA59FF4F80818C93CF5F70E080E090E08C
:100570000E943D069B01AC01C701B6010E94F40632
:100580009B01AC01C501B4010E9423054B015C0134
:10059000D1E009C0DD2339F0F801EC0FF11D8091A5
:1005A00066008083CF5F20E030E040E251E4C70185
:1005B000B6010E9495056B017C0120E030E040E827
:1005C0005FE3C701B6010E94EF0688230CF0B3CFAA
:1005D000C43008F04BC0C11105C0F801EC0FF11D8B
:1005E0001082CF5FEC2FF0E03197E00FF11F809188
:1005F00070009081892B80830F2EC12CD12CF8ECB8
:10060000EF2EF2E4FF2EF02D2FC0A7019601C301BB
:10061000B2010E9495050E940E06D801AC0FB11DD3
:10062000E62FF0E0EA59FF4F80818C93CF5F70E0B6
:1006300080E090E00E943D069B01AC01C701B6013D
:100640000E94F4069B01AC01C301B2010E94230584
:100650002B013C0120E030E040E251E4C701B6014B
:100660000E9495056B017C01C53078F2DF91CF9136
:100670001F910F91FF90EF90DF90CF90BF90AF90C0
:100680009F908F907F906F905F904F90089580E043
:1006900006C0E82FF0E0E254FF4F10828F5F8430F5
:1006A000C0F30E9494030E94170462EC70E00E9461
:1006B000DE04811108C044E050E060E070E082ECAC
:1006C00090E00E94EA041092B600089582EC90E057
:1006D0000E940305803109F58091B600843010F046
:1006E0001092B6000E94B203E091B600F0E0E2542E
:1006F000FF4F80810E94BF038091B6000E94C20319
:1007000044E050E060E070E082EC90E00E94EA0497
:100710008091B6008F5F8093B60008954EEB50E055
:100720000E94050280E0089585B3E7EBF0E0808346
:1007300088B381838FEF84BB84E0838385E08483E7
:1007400086E0858387E0868387B3806187BB87B334
:10075000806287BB87B3806487BB87B3806887BBB1
:10076000CF01089588B3806188BB88B3806288BB5D
:1007700088B3806488BB88B3806888BB08958095FF
:1007800085BB0895843080F428B3E82FF0E0E95465
:10079000FF4F81E090E0038002C0880F991F0A9408
:1007A000E2F78095822388BB08951F920F920FB6BF
:1007B0000F9211248F939F93AF93BF938091D20098
:1007C0009091D300A091D400B091D5000196A11DC5
:1007D000B11D8093D2009093D300A093D400B09326
:1007E000D5008FE791EC9DBD8CBDBF91AF919F91DE
:1007F0008F910F900FBE0F901F9018958FE791EC7F
:100800009DBD8CBD1FBC81E08EBD1092D2001092A8
:10081000D3001092D4001092D5000895811104C025
:1008200089B78B7F89BF089584E089BF089582EDE1
:1008300090E00895009731F0FC018081811104C09F
:1008400082E1089581E0089580E00895CF93DF93D9
:10085000EC010E941A04811106C08981811102C035
:100860008FE001C080E0DF91CF910895CF93DF93B7
:10087000FB0121E0208397878687EC01888199819D
:10088000AA81BB8182879387A487B58780E0DF91A7
:10089000CF910895FC01A685B7858D919D910D900E
:1008A000BC91A02D21E02083218382839383A483A4
:1008B000B583840F951FA61FB71F86839783A087D4
:1008C000B187428753876487758780E00895CF9208
:1008D000DF92EF92FF920F931F93CF93DF93FC0170
:1008E000A685B785CD90DD90ED90FC9002811381B7
:1008F0002481358186819781A085B18508171907E4
:100900002A073B0780F4C816D906EA06FB0630F52D
:10091000C016D106E206F30630F18C199D09AE0926
:10092000BF0910E029C0C816D906EA06FB0628F060
:10093000C016D106E206F306D8F0C816D906EA06B4
:10094000FB0630F48C199D09AE09BF0910E014C0F4
:100950008C199D09AE09BF0910E00EC010E180E0BE
:1009600090E0DC0109C010E180E090E0DC0104C00F
:1009700010E180E090E0DC014115510529F0EA0129
:1009800088839983AA83BB836115710569F0EB01A4
:100990002281338144815581C701B6010E9414052B
:1009A000688379838A839B83812FDF91CF911F9105
:1009B0000F91FF90EF90DF90CF900895009731F066
:1009C0006115710529F00E943604089581E00895AB
:1009D00081E00895CF92DF92EF92FF92CF93DF9361
:1009E000EC016A017B010E941A04811105C0B70164
:1009F000A601CE010E944A04DF91CF91FF90EF90B3
:100A0000DF90CF900895CF93DF93EC010E942604EE
:100A1000811107C040E050E060E070E0CE010E942C
:100A20006704DF91CF9108956217730784079507D4
:100A300028F0621B730B840B950B0895621B730BDC
:100A4000840B950B08955058BB27AA270E943B059D
:100A50000C94B5060E94A70638F00E94AE0620F05E
:100A600039F49F3F19F426F40C94A4060EF4E09593
:100A7000E7FB0C949E06E92F0E94C60658F3BA17AE
:100A8000620773078407950720F079F4A6F50C94A4
:100A9000E8060EF4E0950B2EBA2FA02D0B01B9013C
:100AA00090010C01CA01A0011124FF27591B99F0E4
:100AB000593F50F4503E68F11A16F040A22F232FF0
:100AC000342F4427585FF3CF469537952795A79540
:100AD000F0405395C9F77EF41F16BA0B620B730BE7
:100AE000840BBAF09150A1F0FF0FBB1F661F771F58
:100AF000881FC2F70EC0BA0F621F731F841F48F40D
:100B0000879577956795B795F7959E3F08F0B0CF95
:100B10009395880F08F09927EE0F9795879508957C
:100B20000E947A0608F481E008950E94A9050C94B9
:100B3000B5060E94AE0658F00E94A70640F029F4C0
:100B40005F3F29F00C949E0651110C94E9060C9419
:100B5000A4060E94C60668F39923B1F3552391F3C6
:100B6000951B550BBB27AA2762177307840738F01C
:100B70009F5F5F4F220F331F441FAA1FA9F335D079
:100B80000E2E3AF0E0E832D091505040E695001C2D
:100B9000CAF72BD0FE2F29D0660F771F881FBB1FE7
:100BA000261737074807AB07B0E809F0BB0B802DC5
:100BB000BF01FF2793585F4F3AF09E3F510578F0F1
:100BC0000C949E060C94E9065F3FE4F3983ED4F340
:100BD000869577956795B795F7959F5FC9F7880FC5
:100BE000911D9695879597F90895E1E0660F771F17
:100BF000881FBB1F621773078407BA0720F0621BA8
:100C0000730B840BBA0BEE1F88F7E09508950E94D2
:100C10000E066894B1110C94E90608950E94CE0660
:100C200088F09F5798F0B92F9927B751B0F0E1F0AD
:100C3000660F771F881F991F1AF0BA95C9F714C05D
:100C4000B13091F00E94E806B1E008950C94E806F6
:100C5000672F782F8827B85F39F0B93FCCF3869596
:100C600077956795B395D9F73EF4909580957095F3
:100C700061957F4F8F4F9F4F0895E89409C097FB70
:100C80003EF490958095709561957F4F8F4F9F4F63
:100C90009923A9F0F92F96E9BB279395F6958795A7
:100CA00077956795B795F111F8CFFAF4BB0F11F46A
:100CB00060FF1BC06F5F7F4F8F4F9F4F16C0882311
:100CC00011F096E911C0772321F09EE8872F762F47
:100CD00005C0662371F096E8862F70E060E02AF088
:100CE0009A95660F771F881FDAF7880F9695879574
:100CF00097F90895990F0008550FAA0BE0E8FEEF49
:100D000016161706E807F907C0F012161306E407CF
:100D1000F50798F0621B730B840B950B39F40A26C8
:100D200061F0232B242B252B21F408950A2609F4A6
:100D3000A140A6958FEF811D811D089597F99F67AA
:100D400080E870E060E008959FEF80EC0895002453
:100D50000A941616170618060906089500240A9420
:100D600012161306140605060895092E0394000CA6
:100D700011F4882352F0BB0F40F4BF2B11F460FF35
:100D800004C06F5F7F4F8F4F9F4F089557FD90585E
:100D9000440F551F59F05F3F71F04795880F97FB3F
:100DA000991F61F09F3F79F08795089512161306F9
:100DB0001406551FF2CF4695F1DF08C01616170628
:100DC0001806991FF1CF869571056105089408955D
:100DD000E894BB2766277727CB0197F908950E94EF
:100DE0007A0608F48FEF08950E9407070C94B50661
:100DF0000E94A70638F00E94AE0620F0952311F05D
:100E00000C949E060C94A40611240C94E9060E94EE
:100E1000C60670F3959FC1F3950F50E0551F629F72
:100E2000F001729FBB27F00DB11D639FAA27F00D43
:100E3000B11DAA1F649F6627B00DA11D661F829F6A
:100E40002227B00DA11D621F739FB00DA11D621F4F
:100E5000839FA00D611D221F749F3327A00D611D6C
:100E6000231F849F600D211D822F762F6A2F11244E
:100E70009F5750409AF0F1F088234AF0EE0FFF1F81
:100E8000BB1F661F771F881F91505040A9F79E3FD8
:100E9000510580F00C949E060C94E9065F3FE4F344
:100EA000983ED4F3869577956795B795F795E7952E
:100EB0009F5FC1F7FE2B880F911D9695879597F937
:060EC0000895F894FFCF35
:100EC60000601846101A7E306D79335B5F707F7B49
:020ED600800199
:00000001FF
