:100000000C942A000C9447000C9447000C94470071
:100010000C9447000C9447000C9447000C94470044
:100020000C9447000C9493050C9447000C944700E3
:100030000C9447000C9447000C9447000C94470024
:100040000C9449000C9447000C9447000C94470012
:100050000C94470011241FBECFE5D8E0DEBFCDBF12
:1000600010E0A0E6B0E0E2E4F2E102C005900D92FB
:10007000A438B107D9F720E0A4E8B0E001C01D9290
:10008000A93EB207E1F70E94A2020C941F090C944A
:1000900000001F920F920FB60F9211248F939F931F
:1000A000AF93BF93EF93FF93A0918800B091890025
:1000B000EC91F0E084B195B1EE0FFF1FEC57FF4FCC
:1000C000918380838C918F5F8C9311969C91119773
:1000D000891301C01C9287B1807F87B997B1E091E5
:1000E0008800F09189008081E80FF11D8281892BC1
:1000F00087B9FF91EF91BF91AF919F918F910F9031
:100100000FBE0F901F9018950E949A00909389003F
:1001100080938800089584E890E0089586B180680F
:1001200086B9089586B1806486B9089586B18860DD
:1001300086B90895EAE8F0E0108282E0818386E0E3
:10014000828387E0838320E011C03AB3E22FF0E09E
:10015000E657FF4F81E090E0028002C0880F991FB0
:100160000A94E2F7809583238ABB2F5F80918B00EE
:10017000281758F386B1876086B987B1806487B93C
:1001800097B1E0918A00F0E0E657FF4F8281892B1A
:1001900087B90E948E000E9496000E9492008AE811
:1001A00090E008959093D0008093CF00E3EAF0E0D0
:1001B000118281E0828382E0838383E0848384E010
:1001C000858385E0868386E0878387E0808320E0DF
:1001D00011C031B3E22FF0E0ED55FF4F81E090E028
:1001E000018002C0880F991F0A94E2F7809583234B
:1001F00081BB2F5F8091A300281758F320E010C027
:1002000032B3E22FF0E0ED55FF4F81E090E0018046
:1002100002C0880F991F0A94E2F7832B82BB2F5FDD
:100220008091A300281760F308951F93CF93DF9365
:1002300010E060C080B3C12FD0E0FE01ED55FF4F4C
:1002400090E0018002C0959587950A94E2F780FFBF
:1002500012C0FE01E257FF4F8081882331F0FE017A
:10026000E257FF4F8150808316C081E0FE01EB56BC
:10027000FF4F808310C0FE01E257FF4F808185361B
:1002800030F4FE01E257FF4F8F5F808304C0FE0110
:10029000EB56FF4F1082FE01EB56FF4F80818130FD
:1002A00029F4FE01E456FF4F10820BC0FE01E45614
:1002B000FF4F8081811105C081E0FE01E456FF4FB0
:1002C0008083FE01E456FF4F8081813091F4E091FC
:1002D000CF00F091D000CE01880F991FE80FF91FD1
:1002E0000190F081E02D812F0995C456DF4F82E007
:1002F00088831F5F8091A300181708F49BCFDF91BC
:10030000CF911F91089520E011C03BB3E22FF0E0A0
:10031000E555FF4F81E090E0018002C0880F991FF2
:100320000A94E2F7809583238BBB2F5F8091AB000B
:10033000281758F3089520E010C03BB3E22FF0E0F7
:10034000E555FF4F81E090E0018002C0880F991FC2
:100350000A94E2F7832B8BBB2F5F8091AB002817A9
:1003600060F30895EBEAF0E0118281E0828382E09D
:10037000838383E0848384E0858385E0808320E039
:1003800010C03AB3E22FF0E0E555FF4F81E090E076
:10039000018002C0880F991F0A94E2F7832B8ABB61
:1003A0002F5F8091AB00281760F30E949B01089596
:1003B0002BB3E82FF0E0E555FF4F81E090E001809E
:1003C00002C0880F991F0A94E2F7809582238BBBA5
:1003D00008952BB3E82FF0E0E555FF4F81E090E062
:1003E000018002C0880F991F0A94E2F7822B8BBB11
:1003F00008958091C400823051F48091C30081112E
:1004000004C081E08093C30008951092C300089552
:100410000F931F93CF938091C400823009F041C0A5
:10042000C0E03DC08091C500C81338C0C43089F415
:1004300060916E0070916F006F5F7F4F70936F00DF
:1004400060936E0080E090E00E94FB070E944C05E4
:1004500025C08091C30081110AC0EC2FF0E0EE0F9F
:10046000FF1FE059FF4F80818F5F808309C0EC2F11
:10047000F0E0EE0FFF1FE059FF4F81818F5F818316
:100480000C2F10E0000F111F00591F4FC8010E94D0
:100490005F03F801808191810E944605CF5FC530DE
:1004A00008F2CF911F910F9108950F931F93CF934F
:1004B0008091C400823009F041C0C0E03DC080910D
:1004C000C500C81338C0C43089F460916E007091C3
:1004D0006F006150710970936F0060936E0080E04F
:1004E00090E00E94FB070E944C0525C08091C3004C
:1004F00081110AC0EC2FF0E0EE0FFF1FE059FF4F13
:1005000080818150808309C0EC2FF0E0EE0FFF1F47
:10051000E059FF4F8181815081830C2F10E0000F43
:10052000111F00591F4FC8010E945F03F80180810D
:1005300091810E944605CF5FC53008F2CF911F918F
:100540000F9108950E94D505EC018091C60081119C
:1005500028C081E08093C6000E94BC0581E00E9413
:10056000CC050E94FF0480E690E00E94D2000E9429
:10057000B2010E9484000E948B009093B20080938D
:10058000B100789463EB70E0CE010E949C0681116B
:1005900008C048EE53E060E070E083EB90E00E941A
:1005A000A8060E94150183EB90E00E94C1068031ED
:1005B000A1F58091C500811104C08091C4008230F2
:1005C00061F180E790E00E946C03C0E01CC0809164
:1005D000C500C81317C0C43059F460916E00709103
:1005E0006F0080E090E00E94FB070E944C050AC06B
:1005F000EC2FF0E0EE0FFF1FE059FF4F808191815B
:100600000E944605CF5FC53010F348EE53E060E02E
:1006100070E083EB90E00E94A8068091C5008430D2
:1006200051F460916E0070916F0080E090E00E9444
:10063000FB070E944C058091C400811103C00E94F9
:100640007005AFCF0E941E05ACCF0E949B01809128
:10065000C5000E94D80108958091C400811106C090
:1006600081E08093C4000E94250308951092C40085
:100670000E949B0108958091C400813061F48091B3
:10068000C500843019F41092C50003C08F5F8093B9
:10069000C5000E942503089581E08093C4000E9454
:1006A000250308950E9483018091C5000E94E901FD
:1006B000089582E08093C4000E9452030895FC01D3
:1006C00081818C3321F4118280818F5F80838081CE
:1006D000883108F010820895FC0121812F5F218369
:1006E0000E945F030895DB018A3020F42091780096
:1006F0002C9313C02DEC829F212D11242695269535
:100700002695E22FF0E0E858FF4F30813C93220F0E
:10071000322F330F330F230F821BE82FF0E0E858FE
:10072000FF4F208180918200822B11968C9311972C
:100730009A3030F48091780012968C93129715C0FD
:100740008DEC989F812D1124869586958695E82FAE
:10075000F0E0E858FF4F208112962C931297880FF3
:10076000282F220F220F820F981BE92FF0E0E85864
:10077000FF4F808113968C9308954F925F926F92F2
:100780007F928F929F92AF92BF92CF92DF92EF9221
:10079000FF920F931F93CF93DF934B015C018A016C
:1007A00020E030E0A9010E944E0788232CF5B7FA1B
:1007B000B094B7F8B09480918300F801808320E072
:1007C00030E04AE754E4C501B4010E94AD08882333
:1007D00084F10F2E812CF0EC9F2EF9E7AF2EF4E47C
:1007E000BF2EF02DC1E00F2EC12CD12CF8ECEF2E36
:1007F000F2E4FF2EF02D30C020E030E44CE156E46E
:10080000C501B4010E94AD088823ECF00F2E812CA5
:10081000FCE39F2EFCE1AF2EF6E4BF2EF02DC0E0EE
:100820000F2EC12CD12CFAE7EF2EF4E4FF2EF02D81
:1008300013C0C1E00F2EC12CD12CF8ECEF2EF2E446
:10084000FF2EF02D09C0C0E00F2EC12CD12CFAE7ED
:10085000EF2EF4E4FF2EF02D20E030E04AE754E4E0
:10086000C501B4010E94B2082B013C01C501B401CD
:100870000E94C50728EE33E0269FA001279F500D58
:10088000369F500D1124BA01550F880B990B0E9409
:10089000FD079B01AC01C301B2010E94E1062B01DF
:1008A0003C01D0E042C0A5019401C701B6010E94FD
:1008B0004E0718163CF1A7019601C501B4010E942C
:1008C00053070E94CC07D801AC0FB11DE62FF0E012
:1008D000E858FF4F80818C93CF5F70E080E090E01C
:1008E0000E94FB079B01AC01C701B6010E94B20840
:1008F0009B01AC01C501B4010E94E1064B015C0102
:10090000D1E009C0DD2339F0F801EC0FF11D809131
:1009100078008083CF5F20E030E040E251E4C701FF
:10092000B6010E9453076B017C0120E030E040E8F3
:100930005FE3C701B6010E94AD0888230CF0B3CF76
:10094000C43008F04BC0C11105C0F801EC0FF11D17
:100950001082CF5FEC2FF0E03197E00FF11F809114
:1009600082009081892B80830F2EC12CD12CF8EC32
:10097000EF2EF2E4FF2EF02D2FC0A7019601C30148
:10098000B2010E9453070E94CC07D801AC0FB11DE1
:10099000E62FF0E0E858FF4F80818C93CF5F70E046
:1009A00080E090E00E94FB079B01AC01C701B6010B
:1009B0000E94B2089B01AC01C301B2010E94E10692
:1009C0002B013C0120E030E040E251E4C701B601D8
:1009D0000E9453076B017C01C53078F2DF91CF9103
:1009E0001F910F91FF90EF90DF90CF90BF90AF904D
:1009F0009F908F907F906F905F904F90089580E0D0
:100A000006C0E82FF0E0EF52FF4F10828F5F843076
:100A1000C0F30E9452050E94D50565ED70E00E946A
:100A20009C06811108C044E050E060E070E085ED74
:100A300090E00E94A8061092C700089585ED90E00E
:100A40000E94C106803109F58091C700843010F002
:100A50001092C7000E947005E091C700F0E0EF52CD
:100A6000FF4F80810E947D058091C7000E94800514
:100A700044E050E060E070E085ED90E00E94A80660
:100A80008091C7008F5F8093C700089561ED70E08B
:100A90000E94730380E0089541ED50E00E94BD0381
:100AA00080E0089585B3E8ECF0E0808388B381832B
:100AB0008FEF84BB84E0838385E0848386E0858335
:100AC00087E0868387B3806187BB87B3806287BBFB
:100AD00087B3806487BB87B3806887BBCF010895E5
:100AE00088B3806188BB88B3806288BB88B3806428
:100AF00088BB88B3806888BB0895809585BB0895BE
:100B0000843080F428B3E82FF0E0E853FF4F81E011
:100B100090E0038002C0880F991F0A94E2F7809545
:100B2000822388BB08951F920F920FB60F92112453
:100B30008F939F93AF93BF938091E5009091E600D0
:100B4000A091E700B091E8000196A11DB11D80932E
:100B5000E5009093E600A093E700B093E8008FE7EC
:100B600091EC9DBD8CBDBF91AF919F918F910F90E6
:100B70000FBE0F901F9018958FE791EC9DBD8CBD17
:100B80001FBC81E08EBD1092E5001092E60010922D
:100B9000E7001092E8000895811104C089B78B7FA7
:100BA00089BF089584E089BF089585EE90E0089597
:100BB000009731F0FC018081811104C082E1089529
:100BC00081E0089580E00895CF93DF93EC010E94C7
:100BD000D805811106C08981811102C08FE001C052
:100BE00080E0DF91CF910895CF93DF93FB0121E067
:100BF000208397878687EC0188819981AA81BB81B0
:100C000082879387A487B58780E0DF91CF9108958D
:100C1000FC01A685B7858D919D910D90BC91A02D6D
:100C200021E02083218382839383A483B583840F6F
:100C3000951FA61FB71F86839783A087B18742871A
:100C400053876487758780E00895CF92DF92EF9293
:100C5000FF920F931F93CF93DF93FC01A685B78577
:100C6000CD90DD90ED90FC9002811381248135813F
:100C700086819781A085B185081719072A073B0748
:100C800080F4C816D906EA06FB0630F5C016D10670
:100C9000E206F30630F18C199D09AE09BF0910E098
:100CA00029C0C816D906EA06FB0628F0C016D106E8
:100CB000E206F306D8F0C816D906EA06FB0630F4B9
:100CC0008C199D09AE09BF0910E014C08C199D094B
:100CD000AE09BF0910E00EC010E180E090E0DC0139
:100CE00009C010E180E090E0DC0104C010E180E088
:100CF00090E0DC014115510529F0EA0188839983D0
:100D0000AA83BB836115710569F0EB0122813381F0
:100D100044815581C701B6010E94D2066883798358
:100D20008A839B83812FDF91CF911F910F91FF9039
:100D3000EF90DF90CF900895009731F06115710525
:100D400029F00E94F405089581E0089581E0089556
:100D5000CF92DF92EF92FF92CF93DF93EC016A0183
:100D60007B010E94D805811105C0B701A601CE0103
:100D70000E940806DF91CF91FF90EF90DF90CF9017
:100D80000895CF93DF93EC010E94E405811107C021
:100D900040E050E060E070E0CE010E942506DF9167
:100DA000CF910895621773078407950728F0621B97
:100DB000730B840B950B0895621B730B840B950BBF
:100DC00008955058BB27AA270E94F9060C9473086F
:100DD0000E94650838F00E946C0820F039F49F3FAB
:100DE00019F426F40C9462080EF4E095E7FB0C94D9
:100DF0005C08E92F0E94840858F3BA17620773074A
:100E00008407950720F079F4A6F50C94A6080EF453
:100E1000E0950B2EBA2FA02D0B01B90190010C010A
:100E2000CA01A0011124FF27591B99F0593F50F422
:100E3000503E68F11A16F040A22F232F342F44277A
:100E4000585FF3CF469537952795A795F040539572
:100E5000C9F77EF41F16BA0B620B730B840BBAF042
:100E60009150A1F0FF0FBB1F661F771F881FC2F7AD
:100E70000EC0BA0F621F731F841F48F487957795C1
:100E80006795B795F7959E3F08F0B0CF9395880F7B
:100E900008F09927EE0F9795879508950E943808D6
:100EA00008F481E008950E9467070C9473080E947B
:100EB0006C0858F00E94650840F029F45F3F29F063
:100EC0000C945C0851110C94A7080C9462080E94C1
:100ED000840868F39923B1F3552391F3951B550BBF
:100EE000BB27AA2762177307840738F09F5F5F4FFD
:100EF000220F331F441FAA1FA9F335D00E2E3AF03C
:100F0000E0E832D091505040E695001CCAF72BD053
:100F1000FE2F29D0660F771F881FBB1F26173707A4
:100F20004807AB07B0E809F0BB0B802DBF01FF27D6
:100F300093585F4F3AF09E3F510578F00C945C084F
:100F40000C94A7085F3FE4F3983ED4F38695779519
:100F50006795B795F7959F5FC9F7880F911D96958F
:100F6000879597F90895E1E0660F771F881FBB1FEB
:100F7000621773078407BA0720F0621B730B840B98
:100F8000BA0BEE1F88F7E09508950E94CC0768948D
:100F9000B1110C94A70808950E948C0888F09F57FF
:100FA00098F0B92F9927B751B0F0E1F0660F771F8D
:100FB000881F991F1AF0BA95C9F714C0B13091F083
:100FC0000E94A608B1E008950C94A608672F782F18
:100FD0008827B85F39F0B93FCCF386957795679548
:100FE000B395D9F73EF490958095709561957F4FB4
:100FF0008F4F9F4F0895E89409C097FB3EF490955A
:101000008095709561957F4F8F4F9F4F9923A9F0E1
:10101000F92F96E9BB279395F69587957795679570
:10102000B795F111F8CFFAF4BB0F11F460FF1BC0B4
:101030006F5F7F4F8F4F9F4F16C0882311F096E947
:1010400011C0772321F09EE8872F762F05C06623F5
:1010500071F096E8862F70E060E02AF09A95660FAE
:10106000771F881FDAF7880F9695879597F9089567
:10107000990F0008550FAA0BE0E8FEEF16161706A9
:10108000E807F907C0F012161306E407F50798F011
:10109000621B730B840B950B39F40A2661F0232B2A
:1010A000242B252B21F408950A2609F4A140A695A6
:1010B0008FEF811D811D089597F99F6780E870E08B
:1010C00060E008959FEF80EC089500240A941616BE
:1010D000170618060906089500240A941216130626
:1010E000140605060895092E0394000C11F48823B4
:1010F00052F0BB0F40F4BF2B11F460FF04C06F5FD0
:101100007F4F8F4F9F4F089557FD9058440F551FA5
:1011100059F05F3F71F04795880F97FB991F61F079
:101120009F3F79F087950895121613061406551FF0
:10113000F2CF4695F1DF08C0161617061806991F5C
:10114000F1CF86957105610508940895E894BB2751
:1011500066277727CB0197F908950E94380808F48D
:101160008FEF08950E94C5080C9473080E946508CB
:1011700038F00E946C0820F0952311F00C945C0864
:101180000C94620811240C94A7080E94840870F340
:10119000959FC1F3950F50E0551F629FF001729F1C
:1011A000BB27F00DB11D639FAA27F00DB11DAA1F2B
:1011B000649F6627B00DA11D661F829F2227B00D78
:1011C000A11D621F739FB00DA11D621F839FA00D03
:1011D000611D221F749F3327A00D611D231F849F53
:1011E000600D211D822F762F6A2F11249F575040AA
:1011F0009AF0F1F088234AF0EE0FFF1FBB1F661F25
:10120000771F881F91505040A9F79E3F510580F0ED
:101210000C945C080C94A7085F3FE4F3983ED4F369
:10122000869577956795B795F795E7959F5FC1F791
:10123000FE2B880F911D9695879597F90895F89440
:02124000FFCFDE
:101242002C033B03F901080255024C0359031B000E
:101252000C3500000D1E011E7E306D79335B5F7010
:041262007F7B80010D
:00000001FF
